:1000000010308A00002800000A108A100A118207A6
:100010003734383439342F343434353436342A34A0
:100020003134323433342D34533430343D342B3482
:100030000A108A100A1182074334413449344A3481
:1000400021345E3444347C342834293451345834D7
:100050002E342E3425345634673084008313000840
:1000600003193F280630F800F701F70B3528F80B85
:1000700034287B30F700F70B3B28800B3228080030
:100080000830F8000430F700F70B44288711A0115E
:100090002008831687000330F700F70B4D28F00D7A
:1000A00083120712031C5A28201620088316870083
:1000B0005E28831220122008831687000000831216
:1000C000A0152008831687008312871D6528F80B6A
:1000D00042280430F700F70B6B288711A011200885
:1000E00083168700000083122016200883168700DD
:1000F0000330F700F70B7A280330F700F70B7E2860
:100100008312A0152008831687008312871D862876
:10011000F8010330F700F70B8B28071A78148711C2
:10012000A0112008831687008312071220122008CE
:100130008316870083120800201620088316870084
:100140000430F700F70BA2288312A01520088316AD
:1001500087000330F700F70BAB2883120712201239
:100160002008831687000430F700F70BB5288312A8
:100170008711A01120088316870083122808F00039
:1001800040206E082904EF00F000402020122008D3
:100190008316870000008312A015200883168700AD
:1001A0008312871DD1280430F700F70BD528D828F3
:1001B000000020162008831687000430F700F70B94
:1001C000DF2883120800003027180130EC046C0887
:1001D000EE009C206C080438ED00EE009C20F02816
:1001E000F12800006C08FB39ED00EE009C20533034
:1001F000F700F70BF928080027106A08F039EB0020
:10020000EC00E3206A0EF700F030F7057708F039CC
:10021000EB00EC00E32008006608A800EE019C203B
:100220002830E7002C200330EA00FC200530E700EE
:100230002C200330EA00FC200530E7002C2003309E
:10024000EA00FC200530E7002C200230EA00FC2008
:100250000530E7002C202830EA00FC203230E7008F
:100260002C200C30EA00FC203230E7002C2001303A
:10027000EA00FC203230E7002C200630EA00FC20A7
:100280003230E7002C208A110A1655286808023AF5
:1002900003195129013A03195829073A03195F290B
:1002A0006629C0306707FF3EE900EA00FC206C29A0
:1002B00094306707FF3EE900EA00FC206C29D43047
:1002C0006707FF3EE900EA00FC206C2980306707E1
:1002D000FF3EE900EA00FC20080027146708F03917
:1002E000E800EC00E320670EF700F030F705770830
:1002F000F039E800EC00E3200800E801E6016608B8
:10030000033C031C062A8316061083120614831668
:10031000861083128614831606118312061583161F
:100320008611831286156608FC3E0318AC29043E2C
:10033000092A8316061083120610AC29831686102C
:1003400083128610AC298316061183120611AC297C
:1003500083168611831286111030F700F70BAE2931
:100360000000E7016708033C031C042A69106708C2
:10037000FC3E0318D829043E112A83160616831260
:100380006910061E6914D82983168616831269100F
:10039000861E6914D8298316061783126910061F52
:1003A0006914D8298316861783126910861F691469
:1003B000691C022A660DF700F70DFC30F705770877
:1003C00067070420533C031DE8295330F800082A2E
:1003D000A71CF529660DF700F70DFC30F705770827
:1003E00067071820F800E800FF29660DF700F70DF1
:1003F000FC30F705770867070420F800E800680874
:10040000F800082AE70AB229E60A7F290030F80036
:1004100008000A108A140A11820799299E29A32923
:10042000A8290A108A140A118207BD29C429CB29D8
:10043000D229A71C242A1030E7000130E800462109
:100440005330E7006D212C2A1030E7000130E8001E
:1004500046212030E7006D21080032088400831314
:10046000331883176F088000840A8001B20A0319C9
:10047000B30A0800EE010408ED006E10831B6E1431
:10048000E71F4A2AED176D1EED0AE609E709E60A9D
:100490000319E70A670EF038E900E907E23EEA00CF
:1004A000323EEC0067080F39EA07EA07EC07E93E3D
:1004B000EB00EB07EB07660E0F39EB07EC07EB0DD4
:1004C000EC0DEC09EC0D66080F39EC07E90D07306F
:1004D000E8000A30EC07EB03031C6A2AEB07EA0387
:1004E000031C6E2AEA07E903031C722AE907E803E2
:1004F000031C762A68308400831307306D056D1362
:1005000084036D05031D8B2A6D1A840A6D1A8B2ACC
:100510002030F700A82A84076C30040203196D17F5
:100520000008F700031D9C2A6D1B9C2A6D1AB62A31
:10053000ED199C2A2030A72AED1FA42A2D30F700A0
:1005400084036D13ED13A82AED156D123030F707F3
:10055000E7010408E6006710831B67147708EF00C3
:100560002D2266088400831367188317840A6D1F81
:100570008C2A080003172608A8002508A7002808C9
:10058000FA002708840083137A1883178008031958
:10059000CD2AA70A0319A80ABF2A25082702F700AF
:1005A0002808FA002608031C260FFA027708F8002C
:1005B00003130800031725082B3C0319E32A250819
:1005C0002D3C031DE82A0130F8000030F9000E2B05
:1005D00025082A3C0319F42A25082F3C0319F42A7C
:1005E0002508253C031DF92A0230F8000030F900E7
:1005F0000E2B25085E3C031D022B0330F800003053
:10060000F9000E2B2508213C031D0B2B0430F800AC
:100610000030F9000E2B0030F800F9000313080039
:10062000F801F901F701FA0103173608031D1B2B26
:1006300035080319352B1030B7000310B30DB40D76
:10064000F70DFA0D36087A02031D282B35087702BC
:10065000031C312B3508F702031CFA033608FA0293
:100660000314F80DF90DB70B1D2B03130800031726
:10067000340836068039B800B41F432BB309B409D7
:10068000B30A0319B40AB61F4A2BB509B609B50A4D
:100690000319B60A1030B700F701FA01B40CB30C15
:1006A000031C582B3508F7070318FA0A3608FA070F
:1006B000FA0CF70CF90CF80CB70B4E2BB81F652B86
:1006C000F809F909F80A0319F90A031308000317CE
:1006D0002A082B3A031303197D2B063A03198B2B97
:1006E000073A03199B2B053A0319BE2B0A3A031943
:1006F000DF2B7B3A0319002CF02C03172808260760
:10070000F8002708FA0029080318290FFA077A08C1
:10071000F900F42C0313031728082602F700270812
:10072000FA002908031C290FFA027708F8007A0852
:10073000F900F42C031303172708AC002608AB00BC
:100740002908AE002808AD001030AF00F701FA010B
:10075000AC0CAB0C031CB22B2D08F7070318FA0ADC
:100760002E08FA07FA0CF70CF90CF80CAF0BA82BB3
:100770007908FA007A08F900F42C03130317A80883
:10078000031DCE2BA908031DCE2B0313B10101308D
:10079000B0000030F800F9000317F42C2708B4006B
:1007A0002608B3002908B6002808B5000313102353
:1007B0007908FA007A08F9000317F42C03130317D9
:1007C000A808031DEF2BA908031DEF2B0313B1018C
:1007D0000130B0000030F800F9000317F42C2708AE
:1007E000B4002608B3002908B6002808B500031392
:1007F00010237708F8007A08F9000317F42C031384
:1008000003172708AC002608AB002908AE0028080B
:10081000AD00AB08031D302CAC08031D302CAD0817
:10082000031D152CAE0803191A2C0030F800F9002E
:10083000ED2C2F2CAD08031D262CAE08031D262CF5
:100840000130F8000030F900ED2C2F2C0313B1011A
:100850000130B0000030F800F9000317ED2C532CE4
:100860002B0B3B2CAC08031D3B2C0130F800003057
:10087000F900ED2C532C2B0F532C2C0F532C2D083F
:100880000139B300B401B308031D4F2CB408031D94
:100890004F2C0130F8000030F900ED2C532CFF30C4
:1008A000F800F900ED2CB0010130AF00AB08031DDA
:1008B0005C2CAC080319902CAD08031D622CAE080B
:1008C0000319902CAE08031D692C2D080E3C03184B
:1008D000792CAC08031D702C2B08013C0318792CD3
:1008E0000313B1010230B0000030F800F900031723
:1008F000ED2CAE08031D802C2D08003C0318902C15
:10090000AC08031D872C2B08B53C0318902C03134F
:10091000B1010230B0000030F800F9000317ED2CEF
:10092000B201B10132082E02031CE92C031D9C2CDC
:100930002D0831020318E92CAB08031DA22CAC08CA
:100940000319D62C2C08FA002B080230B400FF3013
:10095000B3002C08B6002B08B50003131023790848
:100960000317B4007808B3003008FA002F08B01F4E
:10097000C22C2F08003CF700FA013008031C300F8E
:10098000FA027708F80034087A02031CD62C031DFB
:10099000CD2C780833020318D62C0313B101023092
:1009A000B0000030F800F9000317ED2C3008B40057
:1009B0002F08B3002C08B6002B08B500031337230B
:1009C00079080317B0007808AF00B10A0319B20A1A
:1009D000922C2F08F8003008F9007908F42C031342
:1009E0000030F800F9000317031308000317280864
:1009F0002B3C0319112D28082D3C0319112D280813
:100A00002A3C0319112D28082F3C0319112D280801
:100A10005E3C0319112D2808253C0319112D0030C7
:100A2000122D0130FA01F8007A08F90003130800CA
:100A30006F0871068039F300EF1F232DEE09EF09CF
:100A4000EE0A0319EF0AF11F2A2DF009F109F00A45
:100A50000319F10AF801F901F701FA017108031D00
:100A6000342D700803194E2D1030F2000310EE0DD6
:100A7000EF0DF70DFA0D71087A02031D412D700874
:100A80007702031C4A2D7008F702031CFA03710851
:100A9000FA020314F80DF90DF20B362DF31F552D44
:100AA000F809F909F80A0319F90A0800E71F5F2D88
:100AB000B1010130B0000030F800F900B22DE71BA1
:100AC000682DE708031D6D2D6608013C031C6D2D84
:100AD0006608F8006708F900B22D6708EF0066089D
:100AE000EE00F1010230F00018257908E9007808DD
:100AF000E8006908EB006808EA006708EF0066088C
:100B0000EE006908F1006808F00018257908FA007D
:100B100078086807EC006908ED0079080318790F78
:100B2000ED076D08EF006C08EE00F1010230F000F7
:100B300018257908E9007808E800E91FA22DEB1FC5
:100B4000792DA42DEB1BAE2D69086B02031CAE2D75
:100B5000031D792D6A086802031C792D6A08F800C4
:100B60006B08F9008A110A16692DE8016808660702
:100B7000840083136718831780080319CB2D680836
:100B80006607840083136718831700085E3C031907
:100B9000CB2DE80AB62D6808660784008313671812
:100BA000831700085E3C0319D82D0130F8002A2E67
:100BB000E80AE90168086607840083136718831749
:100BC00000082F3C0318222E680866078400831350
:100BD000671883170008393C031C222E6908EA00B5
:100BE0000A30EB00F701F8016A0803106B18F707E9
:100BF000F70CF80CEB18F707F70CF80C6B19F70764
:100C0000F70CF80CEB19F707F70CF80C6B1AF70751
:100C1000F70CF80CEB1AF707F70CF80C6B1BF7073F
:100C2000F70CF80CEB1BF707F70CF80C68086607D5
:100C30008400831367188317303000027807E900B7
:100C4000E80ADA2D690801390319282E0030292E07
:0A0C50000130F8008A110A16192F6E
:10100000FF30E800E900B101B001EB01EA01670837
:101010000317A600031366080317A5008A1103131C
:10102000BA228A15EB1B1B28EB08031DD92E780862
:101030006A020318D92E66086A07840083136718AA
:1010400083170008EC006C08203C031D2828D32ED1
:101050006C08413C031D1B29EB1B0E29EB08031DEB
:1010600035286A08003C03180E2901306A0203176C
:10107000900003136B08031791000030031C01302C
:1010800091020313660803171007840083130313E8
:10109000671883170008ED006D082F3C03185428CB
:1010A0006D08393C031864286D08293C031964282D
:1010B0006D08413C031964286D08493C03196428F4
:1010C0006D084A3C031D0E296908FF3C03190729D6
:1010D000C8306907840083130008283C03190729D6
:1010E000C830690784008313000803179000A50027
:1010F0008A110313DA228A157908031791007808F8
:1011000090002A30A5008A110313DA228A15790883
:10111000FA007808FA1F91280317911FA42896282F
:1011200003130317911F9628031307297A08110246
:1011300003189C2803130729031DA428780810020C
:101140000318A428031307290313E808031DAF2875
:10115000B1010130B0000030F800F9005F2F6808DD
:10116000E803F7000310F70D7708A03E840083130F
:10117000840A0008EF0084030008EE006808E80312
:10118000F7000310F70D7708A03E84008313840A4C
:101190000008F10084030008F000E80A0310680D5D
:1011A000A03E0317900091010318910A03136908E8
:1011B000E903C83E840083130008031792007108F6
:1011C000A7007008A60003136F080317A9000313F4
:1011D0006E080317A8001208AA008A1103136723D8
:1011E0008A15031710088400831311188317840AC3
:1011F00079088000840378088000031330083104E4
:10120000031906290030F800F9005F2F6428E90A65
:10121000C8306907840083132A308000E80A03106D
:10122000680DA03E84008313840A2B088000840389
:101230002A088000D32E6C08493C031D0A2AEB1BA8
:10124000FD29EB08031D28296A08003C0318FD2925
:1012500001306A020317900003136B080317910013
:101260000030031C013091020313660803171007B6
:10127000840083130313671883170008F2007208B1
:101280002F3C031847297208393C03185729720864
:10129000293C031957297208413C03195729720840
:1012A000493C0319572972084A3C031DFD29690866
:1012B000FF3C0319F629C83069078400831300082E
:1012C000283C0319F629C8306907840083130008F5
:1012D00003179000A5008A110313DA228A157908F2
:1012E00003179100780890002A30A5008A11031393
:1012F000DA228A157908FA007808FA1F8429031778
:10130000911F9729892903130317911F8929031313
:10131000F6297A08110203188F290313F629031DF1
:10132000972978081002031897290313F629031345
:10133000E808031DA229B1010130B0000030F80017
:10134000F9005F2F6808E803F7000310F70D77082E
:10135000A03E84008313840A0008F400840300087C
:10136000F3006808E803F7000310F70D7708A03EC4
:1013700084008313840A0008F60084030008F50043
:10138000E80A0310680DA03E0317900091010318AE
:10139000910A03136908E903C83E84008313000817
:1013A000031792007608A7007508A6007408A90024
:1013B0007308A8001208AA008A11031367238A156C
:1013C000031710088400831311188317840A7908FF
:1013D0008000840378088000031330083104031967
:1013E000F5290030F800F9005F2F5729E90AC830C5
:1013F0006907840083132A308000E80A0310680D0F
:10140000A03E84008313840A2D08800084032C08E6
:101410008000D32E6C084A3C031D032BEB1BF62ADD
:10142000EB08031D172A6A08003C0318F62A01304E
:101430006A020317900003136B0803179100003032
:10144000031C013091020313660803171007840080
:1014500083130313671883170008FB007B082F3CD6
:101460000318362A7B08393C0318462A7B08293C96
:101470000319462A7B08413C0319462A7B08493C4C
:101480000319462A7B084A3C031DF62A6908FF3CDB
:101490000319EF2AC8306907840083130008283C29
:1014A0000319EF2AC8306907840083130008031763
:1014B0009000A5008A110313DA228A157908031710
:1014C0009100780890002A30A5008A110313DA22CF
:1014D0008A157908FA007808FA1F732A0317911FF2
:1014E000862A782A03130317911F782A0313EF2AF9
:1014F0007A08110203187E2A0313EF2A031D862A95
:10150000780810020318862A0313EF2A0313E80849
:10151000031D912AB1010130B0000030F800F9003C
:101520005F2F6808E803F7000310F70D7708A03E67
:1015300084008313840A0008FD0084030008FC0073
:101540006808E803F7000310F70D7708A03E840051
:101550008313840A00088316DD0084030008DC007E
:101560008312E80A0310680DA03E03179000910152
:101570000318910A03136908E903C83E8400831322
:10158000000803179200831603135D0883120317E4
:10159000A700831603135C0883120317A6007D08B7
:1015A000A9007C08A8001208AA008A110313672367
:1015B0008A15031710088400831311188317840AEF
:1015C0007908800084037808800003133008310410
:1015D0000319EE2A0030F800F9005F2F462AE90AC5
:1015E000C8306907840083132A308000E80A03109A
:1015F000680DA03E84008313840A2F0880008403B2
:101600002E088000D32E6C082D3C031D592BEA08B0
:10161000031D0D2BEB080319472B01306A0203173A
:10162000900003136B08031791000030031C013076
:101630009102031366080317100784008313031332
:10164000671883170008283C0319472B01306A02EA
:101650000317920003136B08031793000030031C59
:1016600001309302031366080317120784008313E3
:10167000031367188317000803179400A8008A1142
:101680000313F6248A15780879040319592BE80AFC
:101690000310680DA03E84008313840A8001840334
:1016A0008001E90AC8306907840083132D30800067
:1016B000D32E6C082F3C0318D22B6C08393C031C2A
:1016C000D22B8316DF01DE01831267080317A60001
:1016D000031366080317A5008A110313BA228A159B
:1016E000EB1B792BEB08031DBF2B78086A0203184C
:1016F000BF2B66086A0784008313671883170008E6
:101700002F3C0318BF2B66086A07840083136718F1
:1017100083170008393C031CBF2B83165F08831214
:101720000317B400831603135E0883120317B30074
:10173000B6010A30B5008A11031337238A157908D8
:101740000317910078089000031366086A07840065
:1017500083136718831730300002031710078316AE
:101760000313DE0083120317110883160313DF002F
:101770000318DF0A8312EA0A0319EB0A652BE80A49
:101780000310680DA03E84008313840A83165F084B
:10179000800084035E08800083126A080319EB034B
:1017A000EA03D32E6C08283C031DDE2BE90AC8305F
:1017B00069078400831328308000D32E6C08293CED
:1017C000031DB82C6908FF3C0319602CC830690759
:1017D000840083130008283C0319602CE808031DCB
:1017E000F82BB1010130B0000030F800F9005F2F94
:1017F0006808E803F7000310F70D7708A03E84009F
:101800008313840A00088316E10084030008E000C3
:1018100083126808E803F7000310F70D7708A03E6D
:1018200084008313840A00088316E30084030008FD
:10183000E2008312E80A0310680DA03E031790002F
:1018400091010318910A03136908E903C83E840053
:10185000831300080317920083160313630883128F
:101860000317A70083160313620883120317A60049
:1018700083160313610883120317A9008316031349
:10188000600883120317A8001208AA008A11031324
:1018900067238A1503171008840083131118831710
:1018A000840A7908800084037808800003133008D4
:1018B000310403195F2C0030F800F9005F2FE22B90
:1018C0006908FF3C031D6B2CB1010130B0000030F2
:1018D000F800F9005F2FE90301306A070317900051
:1018E00003136B08031791000318910A0313670889
:1018F0000317A600031366080317A5008A11031334
:10190000BA228A150317911B8C2C9108031DB62C43
:10191000780810020318B62C013003136A07031766
:10192000900003136B08031791000318910A031327
:1019300066080317100784008313031367188317BF
:101940000008FE007E08413C0319AE2C7E08493C8D
:101950000319AE2C7E084A3C031DB52CE90AC83099
:101960006907840083132A3080000317D42E0313E1
:101970006C08213C031D4C2D0310680DA03E840013
:101980008313840A00080317910084030008900061
:10199000911BCB2CD42C0313B1010130B0000030CB
:1019A000F800F9005F2F031703100313680DA03E22
:1019B0000317900091010318910A03100313680D97
:1019C000A03E84008313840A000803179300840355
:1019D000000892001308A8001208A700A708031D1A
:1019E000F42CA8080319F92C270BFE2CA808031DBA
:1019F000FE2C0130F8000030F900372DA808031D37
:101A0000052D2708073C03180E2D0313B1010230E2
:101A1000B0000030F800F9000317372DAA0101309B
:101A2000A900AC010230AB002C082802031C332DA6
:101A3000031D1E2D2B082702031C332D2A08B4007A
:101A40002908B3002C08B6002B08B5008A1103132F
:101A500037238A1579080317AA007808A900AB0A6A
:101A60000319AC0A142D2908F8002A08F9001008F7
:101A70008400831311188317840A79088000840373
:101A80007808800003133008310403194B2D00300F
:101A9000F800F9005F2FD32E6C080317A8008A11F5
:101AA0000313F6248A15780879040319CC2E6C08E0
:101AB0005E3C031D0F2E6908FF3C03190E2EC83033
:101AC0006907840083130008283C03190E2EC830D0
:101AD000690784008313000803179000A5008A118A
:101AE0000313DA228A157908031791007808900009
:101AF0005E30A5008A110313DA228A157908FA00EC
:101B00007808FA1F882D0317911F9B2D8D2D031325
:101B10000317911F8D2D03130E2E7A08110203183F
:101B2000932D03130E2E031D9B2D10087802031C0A
:101B30009B2D03130E2E0313E808031DA62DB101E0
:101B40000130B0000030F800F9005F2F6808E803AA
:101B5000F7000310F70D7708A03E84008313840A72
:101B600000088316E50084030008E4008312680877
:101B7000E803F7000310F70D7708A03E84008313F5
:101B8000840A00088316E70084030008E600831235
:101B9000E80A0310680DA03E031790009101031896
:101BA000910A03136908E903C83E840083130008FF
:101BB0000317920083160313670883120317A70005
:101BC00083160313660883120317A60083160313F4
:101BD000650883120317A900831603136408831290
:101BE0000317A8001208AA008A11031367238A1595
:101BF000031710088400831311188317840A7908C7
:101C0000800084037808800003133008310403192E
:101C10000D2E0030F800F9005F2F5B2DC42E6908EF
:101C2000FF3C0319C42EC8306907840083130008E1
:101C3000283C0319C42EC8306907840083130008A8
:101C400003179000A5008A110313DA228A15790878
:101C5000031791007808900003136C080317A50080
:101C60008A110313DA228A157908FA007808FA1F14
:101C70003E2E0317911F512E432E03130317911F5E
:101C8000432E0313C42E7A0811020318492E03139E
:101C9000C42E031D512E780810020318512E031371
:101CA000C42E0313E808031D5C2EB1010130B000FF
:101CB0000030F800F9005F2F6808E803F700031010
:101CC000F70D7708A03E84008313840A000883166A
:101CD000E90084030008E80083126808E803F700BD
:101CE0000310F70D7708A03E84008313840A0008D0
:101CF0008316EB0084030008EA008312E80A03104D
:101D0000680DA03E0317900091010318910A031378
:101D10006908E903C83E8400831300080317920092
:101D2000831603136B0883120317A700831603138C
:101D30006A0883120317A600831603136908831227
:101D40000317A90083160313680883120317A8005A
:101D50001208AA008A11031367238A1503171008B3
:101D60008400831311188317840A79088000840380
:101D7000780880000313300831040319C32E0030A3
:101D8000F800F9005F2F0F2EE90AC83069078400B8
:101D900083136C088000D32EB1010130B0000030F5
:101DA000F800F9005F2F03170313EA0A0319EB0A7F
:101DB00007286908FF3C03194F2FE808031DE72E89
:101DC000B1010130B0000030F800F9005F2F680861
:101DD000E803F7000310F70D7708A03E8400831393
:101DE000840A00088316ED0084030008EC008312C7
:101DF0006808E803F7000310F70D7708A03E840099
:101E00008313840A00088316EF0084030008EE00A1
:101E10008312E80A0310680DA03E03179000910199
:101E20000318910A03136908E903C83E8400831369
:101E3000000803179200831603136F088312031719
:101E4000A700831603136E0883120317A6008316D8
:101E500003136D0883120317A900831603136C087C
:101E600083120317A8001208AA008A11031367231C
:101E70008A15031710088400831311188317840A26
:101E80007908800084037808800003133008310447
:101E900003194E2F0030F800F9005F2FD92EE80803
:101EA000031D592F83162008F8002108F90083121A
:101EB0005F2FB1010130B0000030F800F9000800D8
:1020000003081F398300FF30A0000830A900AB018E
:10201000AA01AD01AC01AF01AE01B101B001A71041
:10202000B301B201831603170908C03989000313ED
:102030001F129F1200300317880083128701880146
:10204000890183130313A101A2010230E600FA30D3
:10205000E7000A122C200A16E60B2728831603171E
:102060000908C039890003131F129F12003003179B
:102070008800831203131F10C4014510C514FF30DC
:1020800083168500F0308600FF3087008312A000A1
:1020900083160914891409158915013095008113D7
:1020A0004E308312E6000A120C290A160130EA00AB
:1020B0000A12FC200A160130E700E8000A12462145
:1020C0000A165830E7000A126D210A164930E70057
:1020D0000A126D210A164E30E7000A126D210A1607
:1020E0002030E7000A126D210A164330E7000A1279
:1020F0006D210A164830E7000A126D210A16413098
:10210000E7000A126D210A164F30E7000A126D210E
:102110000A160130E7000230E8000A1246210A16CA
:10212000B5010A127D210A16F808031D91280A122A
:102130007D210A167808B400B4080319F82F0A1292
:102140007D210A163408780203199F28C830E70059
:102150000A122C200A163408533C031DD128C51C32
:10216000C4280130E700E8000A1246210A16D2010D
:102170005208073C031CC3282030E7000A126D21D7
:102180000A16D20AB828C5100230A7060A12192268
:102190000A160A127D210A167808533C0319C92829
:1021A0009728A71CD728A7100A1219220A16C51C9F
:1021B00003293408433C031903290130E700E800F0
:1021C0000A1246210A16D30153080F3C031CEF28BC
:1021D0002030E7000A126D210A16D30AE4280130E4
:1021E000E7000230E8000A1246210A16D40154081A
:1021F0000F3C031C02292030E7000A126D210A1649
:10220000D40AF728C5103408433C031D4629A710FB
:102210000A1219220A160130EA000A12FC200A16D4
:102220000A1219220A160130E700E8000A124621B4
:102230000A165830E7000A126D210A164930E700E5
:102240000A126D210A164E30E7000A126D210A1695
:102250002030E7000A126D210A164330E7000A1207
:102260006D210A164830E7000A126D210A16413026
:10227000E7000A126D210A164F30E7000A126D219D
:102280000A16C401B5014510C514F82F3408443CA2
:10229000031D6B29C40803196A29C4033530440798
:1022A00084008313800101304407E600E700013019
:1022B000E8000A1246210A162030E7000A126D21B2
:1022C0000A1601304407E600E7000130E8000A1270
:1022D00046210A16F82F3408493C031D3A2A451CAA
:1022E000132AB008031D7729B1080319D929013031
:1022F000EA000A12FC200A160130E700E8000A1280
:1023000046210A164530E7000A126D210A1652309E
:10231000E7000A126D210A165230E7000A126D21F9
:102320000A160430E600FA30E7000A122C200A16DA
:10233000E60B9329A7100A1219220A160130EA00A7
:102340000A12FC200A160A1219220A160130E700A6
:10235000E8000A1246210A165830E7000A126D21D9
:102360000A164930E7000A126D210A164E30E700BE
:102370000A126D210A162030E7000A126D210A1692
:102380004330E7000A126D210A164830E7000A12AE
:102390006D210A164130E7000A126D210A164F30EE
:1023A000E7000A126D210A16C401B5014510C514D3
:1023B000122A2B08AD002A08AC000130EA000A12EC
:1023C000FC200A160130E700E8000A1246210A162E
:1023D0004C30E7000A126D210A165530E7000A1248
:1023E0006D210A165530E7000A126D210A162030B9
:1023F000E7000A126D210A164930E7000A126D2122
:102400000A160430E600FA30E7000A122C200A16F9
:10241000E60B032A0130EA000A12FC200A16C51452
:10242000C4014510392A451C1D2A0130EA000A1250
:10243000FC200A16C401B501451044080D3C031CDC
:10244000392A4408C40A353E840083134930800089
:10245000353044078400831380014408E7000130CD
:10246000E8000A1246210A164930E7000A126D21D7
:102470000A16F82F34084A3C031D092B451CE22A92
:10248000B008031D462AB1080319A82A0130EA0042
:102490000A12FC200A160130E700E8000A12462161
:1024A0000A164530E7000A126D210A165230E7007D
:1024B0000A126D210A165230E7000A126D210A161F
:1024C0000430E600FA30E7000A122C200A16E60B68
:1024D000622AA7100A1219220A160130EA000A120B
:1024E000FC200A160A1219220A160130E700E80039
:1024F0000A1246210A165830E7000A126D210A1600
:102500004930E7000A126D210A164E30E7000A1220
:102510006D210A162030E7000A126D210A16433099
:10252000E7000A126D210A164830E7000A126D21F1
:102530000A164130E7000A126D210A164F30E700F3
:102540000A126D210A16C401B5014510C514E12A0D
:102550002B08AF002A08AE000130EA000A12FC2066
:102560000A160130E700E8000A1246210A164C302C
:10257000E7000A126D210A165530E7000A126D2194
:102580000A165530E7000A126D210A162030E700BE
:102590000A126D210A164A30E7000A126D210A1646
:1025A0000430E600FA30E7000A122C200A16E60B87
:1025B000D22A0130EA000A12FC200A16C514C4010E
:1025C0004510082B451CEC2A0130EA000A12FC20B9
:1025D0000A16C401B501451044080D3C031C082B24
:1025E0004408C40A353E840083134A3080003530E5
:1025F00044078400831380014408E7000130E800A9
:102600000A1246210A164A30E7000A126D210A16FC
:10261000F82F3408563C031D362C0130EA000A120C
:10262000FC200A160130E700E8000A1246210A16CB
:10263000B3014630B2004130EF000A122D220A16D3
:102640003D30EF000A122D220A16103084002B08AC
:10265000E7002A08E6000A123A220A16D501463097
:1026600055078400831380080319462B5508063C40
:10267000031C462B46305507840083130008E600F0
:10268000E7000A126D210A16D50A2F2B2030E70029
:102690000A126D210A160130E7000230E8000A1222
:1026A00046210A16B3014630B2004930EF000A1243
:1026B0002D220A163D30EF000A122D220A16103084
:1026C00084002D08E7002C08E6000A123A220A16B8
:1026D0002030EF000A122D220A163B30EF000A12BA
:1026E0002D220A16D601463056078400831380082F
:1026F00003198A2B5608063C031C8A2B46305607C2
:10270000840083130008E600E7000A126D210A1610
:10271000D60A732B2030E7000A126D210A16B30186
:102720004630B2004A30EF000A122D220A163D3020
:10273000EF000A122D220A16103084002F08E7003D
:102740002E08E6000A123A220A16D7014630570729
:102750008400831380080319B92B4630570784007F
:1027600083130008E600E7000A126D210A16D70A53
:10277000A62B0A127D210A16F8080319B92B01307D
:10278000EA000A12FC200A16451C192C0130E70049
:10279000E8000A1246210A164B30E7000A126D21A2
:1027A0000A165130E7000A126D210A160130E700BF
:1027B0000230E8000A1246210A163D30E7000A12EC
:1027C0006D210A16B008031D092CB108031D092C40
:1027D000B3014630B200103084002B08E7002A080D
:1027E000E6000A123A220A16D80146305807840039
:1027F000831380080319082C46305807840083137C
:102800000008E600E7000A126D210A16D80AF52B27
:10281000182C4530E7000A126D210A165230E700E5
:102820000A126D210A165230E7000A126D210A16AB
:10283000352CC4080319342C0130E700E8000A12D3
:1028400046210A16D901440859020318332C3530A1
:102850005907840083130008E600E7000A126D217F
:102860000A16D90A232C352CC514F82F34087C3CC1
:10287000031DD02C451C412C2B08DB002A08DA0054
:102880007D2CC40803197C2CE7013530E6000A12C0
:102890008A1500200A168A117908DB007808DA0008
:1028A000B008031D562CB10803197A2C0130EA0038
:1028B0000A12FC200A160130E700E8000A1246213D
:1028C0000A164530E7000A126D210A165230E70059
:1028D0000A126D210A165230E7000A126D210A16FB
:1028E0000430E600FA30E7000A122C200A16E60B44
:1028F000722C972845147D2C9728DB1B802C852C67
:10290000DA09DB09DA0A0319DB0A5B08AB005A08AB
:10291000AA000130EA000A12FC200A160130E70082
:10292000E8000A1246210A164130E7000A126D211A
:102930000A164230E7000A126D210A165330E700EA
:102940000A126D210A160130E7000230E8000A126F
:1029500046210A163D30E7000A126D210A16B3011E
:102960004630B200103084002B08E7002A08E60049
:102970000A123A220A16DC0146305C0784008313EF
:1029800080080319CF2C46305C07840083130008AD
:10299000E600E7000A126D210A16DC0ABC2CF82FAB
:1029A0003408513C031DBA2D451CDB2C2B08DE00DE
:1029B0002A08DD00172DC4080319162DE70135304C
:1029C000E6000A128A1500200A168A117908DE002C
:1029D0007808DD00B008031DF02CB1080319142D90
:1029E0000130EA000A12FC200A160130E700E80074
:1029F0000A1246210A164530E7000A126D210A160E
:102A00005230E7000A126D210A165230E7000A120E
:102A10006D210A160430E600FA30E7000A122C2075
:102A20000A16E60B0C2D97284514172D9728DE1B48
:102A30001A2D632D0130EA000A12FC200A1601301B
:102A4000E700E8000A1246210A164530E7000A129C
:102A50006D210A165230E7000A126D210A16523013
:102A6000E7000A126D210A160130E7000230E80083
:102A70000A1246210A165330E7000A126D210A167F
:102A80005130E7000A126D210A165230E7000A128F
:102A90006D210A165430E7000A126D210A163C30E7
:102AA000E7000A126D210A163030E7000A126D2184
:102AB0000A160630E600FA30E7000A122C200A1641
:102AC000E60B5B2D97285E08E7005D08E6000A121A
:102AD000562D0A167908AB007808AA000130EA00E2
:102AE0000A12FC200A160130E700E8000A1246210B
:102AF0000A165330E7000A126D210A165130E7001A
:102B00000A126D210A165230E7000A126D210A16C8
:102B10005430E7000A126D210A160130E700023036
:102B2000E8000A1246210A163D30E7000A126D211C
:102B30000A16B3014630B200103084002B08E700BB
:102B40002A08E6000A123A220A16DF0146305F0719
:102B50008400831380080319B92D46305F07840071
:102B600083130008E600E7000A126D210A16DF0A47
:102B7000A62DF82F3408413C031DE52D451CC82D1A
:102B80000130EA000A12FC200A16C401B501451002
:102B900044080D3C031CE42D4408C40A353E84005F
:102BA0008313413080003530440784008313800153
:102BB0004408E7000130E8000A1246210A164130B5
:102BC000E7000A126D210A16F82F3408583C031D3D
:102BD0005E2EAB01AA01AD01AC01AF01AE01013027
:102BE000EA000A12FC200A160130E700E8000A1287
:102BF00046210A164330E7000A126D210A164C30AE
:102C0000E7000A126D210A165230E7000A126D2100
:102C10000A162030E7000A126D210A164D30E7002F
:102C20000A126D210A164530E7000A126D210A16B4
:102C30004D30E7000A126D210A160430E600FA3022
:102C4000E7000A122C200A16E60B1F2E0130EA00BC
:102C50000A12FC200A160130E700E8000A12462199
:102C60000A165830E7000A126D210A164930E700AB
:102C70000A126D210A164E30E7000A126D210A165B
:102C80002030E7000A126D210A164330E7000A12CD
:102C90006D210A164830E7000A126D210A164130EC
:102CA000E7000A126D210A164F30E7000A126D2163
:102CB0000A16C401B5014510C514F82F3408213C8B
:102CC000031DCC2E451CCC2E0130EA000A12FC203C
:102CD0000A16B3014630B200103084002B08E7001A
:102CE0002A08E6000A123A220A16C401E001463018
:102CF00060078400831380080319AE2E44080D3C3E
:102D0000031CAE2E4408C40A353EE600E701031852
:102D1000E70A46306007840083130008E80066086D
:102D200084008313671883176808800035304407D0
:102D30008400831380014408E7000130E8000A1290
:102D400046210A1646306007840083130008E60017
:102D5000E7000A126D210A16E00A772E44080D3C9E
:102D6000031CCA2E4408C40A353E84008313213054
:102D70008000353044078400831380014408E70055
:102D80000130E8000A1246210A162130E7000A1233
:102D90006D210A164510F82F34083D3C031D582FAD
:102DA000C4080319572FE1013508283C031DDE2E06
:102DB00036082D3C031DDE2E0130E100E7013530E1
:102DC000E6000A128A1500200A168A117908E30023
:102DD0007808E2000130EA000A12FC200A160130ED
:102DE000E700E8000A1246210A164B30E7000A12F3
:102DF0006D210A165130E7000A126D210A160130C2
:102E0000E7000230E8000A1246210A163D30E700CA
:102E10000A126D210A16B008031D472FB108031DC1
:102E2000472FE1080319222FE7013530E6000A1287
:102E3000B52D0A16F808031D222FE209E309E20A5C
:102E40000319E30AB3014630B2001030840063086E
:102E5000E7006208E6000A123A220A16E401463048
:102E600064078400831380080319422F46306407E7
:102E7000840083130008E600E7000A126D210A1699
:102E8000E40A2F2F6308AB006208AA00562F4530D2
:102E9000E7000A126D210A165230E7000A126D216E
:102EA0000A165230E7000A126D210A164514F82F4F
:102EB000451CD22F34082B3C03196A2F34082D3CB3
:102EC00003196A2F34082A3C03196A2F34082F3C4F
:102ED000031DD22F0130EA000A12FC200A16B301AA
:102EE0004630B200103084002B08E7002A08E600C4
:102EF0000A123A220A16C401E50146306507840029
:102F0000831380080319B42F44080D3C031CB42F0D
:102F10004408C40A353EE600E7010318E70A4630D4
:102F20006507840083130008E800660884008313A3
:102F300067188317680880003530440784008313BE
:102F400080014408E7000130E8000A1246210A1611
:102F500046306507840083130008E600E7000A1284
:102F60006D210A16E50A7D2F44080D3C031CD02F65
:102F70004408C40A353E8400831334088000353089
:102F800044078400831380014408E7000130E8000F
:102F90000A1246210A163408E7000A126D210A16A1
:102FA0004510F82F451CDC2F0130EA000A12FC20E6
:102FB0000A16C401B501451044080D3C031CF82F46
:102FC0004408C40A353E8400831334088000353039
:102FD00044078400831380014408E7000130E800BF
:102FE0000A1246210A163408E7000A126D210A1651
:042FF00097286300BB
:04400E00F22CFF3F52
:00000001FF
;PIC16F887
;CRC=471A  CREATED="25-Dec-25 15:43"
